:020000040800F2
:100000000028002091140008251300082B13000875
:1000100031130008371300083D13000800000000EA
:100020000000000000000000000000004313000872
:100030004F130008000000005B130008671300085E
:10004000D9140008D9140008D9140008D9140008DC
:10005000D9140008D9140008D9140008D9140008CC
:10006000D9140008D9140008D9140008D9140008BC
:10007000D9140008D9140008D9140008D9140008AC
:10008000D9140008D9140008D9140008D91400089C
:10009000D9140008D9140008D9140008D91400088C
:1000A000D9140008D9140008D9140008D91400087C
:1000B00075130008D914000800000000D9140008C6
:1000C000D91400080000000000000000D914000846
:1000D00000000000D9140008D91400080000000036
:1000E000D9140008D9140008D91400080000000031
:1000F0000000000000000000000000000000000000
:0C01000000000000000000005FF808F1A3
:10010C0010B5054C237833B9044B13B10448AFF345
:10011C0000800123237010BD50000020000000005F
:10012C00002B000808B5034B1BB103490348AFF380
:10013C00008008BD0000000054000020002B0008C7
:10014C0080B582B000AF00237B6047E0274A7B6814
:10015C0013441978264A7B6813440A461A70254AB8
:10016C007B6813441978214A7B6813440A461A7039
:10017C00214A7B6832F813301946204801F092FC72
:10018C00034619461B4A7B6813440A461A70174AE1
:10019C007B6813441A7816497B680B441B789A4287
:1001AC0019D1134A7B6813441978154A7B68134498
:1001BC000A461A70124A7B6813441B78002B05D12F
:1001CC00104A7B68134401221A7004E00D4A7B68C4
:1001DC00134400221A707B6801337B607B68022B0E
:1001EC00B4DD00BF00BF0837BD4680BD74000020E1
:1001FC00780000207000002000000020000C01405E
:10020C006C0000207C00002080B483B000AF7860CC
:10021C00094A7B6813441B78012B06D1064A7B687C
:10022C00134400221A70012300E0002318460C37F7
:10023C00BD4680BC704700BF7C00002080B582B0FA
:10024C0000AF78607B68CA2B29D07B68CA2B36DC60
:10025C007B68C82B03D07B68C92B10D02FE0002201
:10026C001021194801F035FC01222021164801F01B
:10027C0030FC01224021144801F02BFC1FE001222C
:10028C001021114801F025FC002220210E4801F01C
:10029C0020FC012240210C4801F01BFC0FE0012244
:1002AC001021094801F015FC01222021064801F01B
:1002BC0010FC00224021044801F00BFC00BF00BFE1
:1002CC000837BD4680BD00BF0008014080B582B034
:1002DC0000AF78607B68CA2B29D07B68CA2B36DCD0
:1002EC007B68C82B03D07B68C92B10D02FE0002271
:1002FC000221194801F0EDFB01220421164801F0FE
:10030C00E8FB01220821144801F0E3FB1FE0012265
:10031C000221114801F0DDFB002204210E4801F0FE
:10032C00D8FB012208210C4801F0D3FB0FE001227D
:10033C000221094801F0CDFB01220421064801F0FD
:10034C00C8FB00220821044801F0C3FB00BF00BF1A
:10035C000837BD4680BD00BF0008014080B582B0A3
:10036C0000AF78607B68CD2B47D07B68CD2B63DCEE
:10037C007B68CB2B03D07B68CC2B1FD05CE000229E
:10038C0010212F4801F0A5FB012220212C4801F05F
:10039C00A0FB012240212A4801F09BFB00220221F4
:1003AC00274801F096FB01220421254801F091FB1E
:1003BC0001220821224801F08CFB3DE00122102192
:1003CC001F4801F086FB002220211D4801F081FB13
:1003DC00012240211A4801F07CFB0122022118481D
:1003EC0001F077FB00220421154801F072FB012279
:1003FC000821134801F06DFB1EE00122102110486A
:10040C0001F067FB012220210D4801F062FB002264
:10041C0040210B4801F05DFB01220221084801F04C
:10042C0058FB01220421064801F053FB002208214D
:10043C00034801F04EFB00BF00BF0837BD4680BD2E
:10044C000008014080B500AF012210210E4801F0D8
:10045C0040FB012220210C4801F03BFB01224021F2
:10046C00094801F036FB01220221074801F031FB5B
:10047C0001220421044801F02CFB0122082102482E
:10048C0001F027FB00BF80BD0008014080B582B0A1
:10049C0000AF78607B68002B22D100220121BD487F
:1004AC0001F017FB00220221BA4801F012FB0022D6
:1004BC000421B84801F00DFB00220821B54801F0D9
:1004CC0008FB00221021B34801F003FB002220217D
:1004DC00B04801F0FEFA01224021AE4801F0F9FAD1
:1004EC007B68012B22D101220121AA4801F0F1FAEB
:1004FC0000220221A74801F0ECFA00220421A548B1
:10050C0001F0E7FA01220821A24801F0E2FA0122E7
:10051C001021A04801F0DDFA012220219D4801F0B4
:10052C00D8FA012240219B4801F0D3FA7B68022BB8
:10053C0022D100220121974801F0CBFA002202219E
:10054C00944801F0C6FA01220421924801F0C1FA44
:10055C00002208218F4801F0BCFA002210218D489E
:10056C0001F0B7FA012220218A4801F0B2FA0022E8
:10057C004021884801F0ADFA7B68032B22D1002280
:10058C000121844801F0A5FA00220221814801F0E2
:10059C00A0FA002204217F4801F09BFA00220821D6
:1005AC007C4801F096FA012210217A4801F091FA68
:1005BC0001222021774801F08CFA00224021754855
:1005CC0001F087FA7B68042B22D1012201217148AA
:1005DC0001F07FFA002202216E4801F07AFA002223
:1005EC0004216C4801F075FA01220821694801F0D8
:1005FC0070FA01221021674801F06BFA00222021C9
:10060C00644801F066FA00224021624801F061FA68
:10061C007B68052B22D1002201215E4801F059FA9A
:10062C00012202215B4801F054FA002204215948AE
:10063C0001F04FFA00220821564801F04AFA012233
:10064C001021544801F045FA00222021514801F0B4
:10065C0040FA002240214F4801F03BFA7B68062B00
:10066C0022D1002201214B4801F033FA0122022150
:10067C00484801F02EFA00220421464801F029FADC
:10068C0000220821434801F024FA0022102141489D
:10069C0001F01FFA002220213E4801F01AFA002234
:1006AC0040213C4801F015FA7B68072B22D100222F
:1006BC000121384801F00DFA00220221354801F0E1
:1006CC0008FA00220421334801F003FA0122082120
:1006DC00304801F0FEF9012210212E4801F0F9F901
:1006EC00012220212B4801F0F4F901224021294854
:1006FC0001F0EFF97B68082B22D10022012125485B
:10070C0001F0E7F900220221224801F0E2F900226F
:10071C000421204801F0DDF9002208211D4801F0D8
:10072C00D8F9002210211B4801F0D3F90022202116
:10073C00184801F0CEF900224021164801F0C9F901
:10074C007B68092B22D100220121124801F0C1F94A
:10075C00002202210F4801F0BCF9002204210D48AF
:10076C0001F0B7F9002208210A4801F0B2F9012280
:10077C001021084801F0ADF900222021054801F0B4
:10078C00A8F900224021034801F0A3F900BF083763
:10079C00BD4680BD000C014080B582B000AF7860D2
:1007AC0004227B6893FBF2F102FB01F29B1A7B6043
:1007BC007B68032B7ED801A252F823F0D9070008DE
:1007CC00130800084D0800088708000801224FF4A0
:1007DC0080713C4801F07DF901224FF400713948D9
:1007EC0001F077F901224FF48061364801F071F97C
:1007FC00354B1B681846FFF749FE00228021314813
:10080C0001F067F959E0012280212E4801F061F9CD
:10081C0001224FF400712B4801F05BF901224FF4D7
:10082C008061284801F055F9274B5B681846FFF7A3
:10083C002DFE00224FF48071224801F04AF93CE071
:10084C00012280211F4801F044F901224FF48071EC
:10085C001C4801F03EF901224FF48061194801F067
:10086C0038F9194B9B681846FFF710FE00224FF41D
:10087C000071144801F02DF91FE00122802111486C
:10088C0001F027F901224FF480710E4801F021F993
:10089C0001224FF400710B4801F01BF90A4BDB6885
:1008AC001846FFF7F3FD00224FF48061054801F074
:1008BC0010F902E000237B6000BF00BF0837BD4683
:1008CC0080BD00BF000801400800002080B400AFCC
:1008DC003D4B1B68C82B07D03B4B1B68C92B03D067
:1008EC00394B1B68CA2B32D1384B1B68384A82FBF8
:1008FC0003129210DB17D31A364A1360334B196864
:10090C00334B83FB01239A10CB17D21A13469B004F
:10091C0013445B00CA1A2F4B5A602F4B1B682C4A8E
:10092C0082FB03129210DB17D31A2A4A93602A4BCC
:10093C001968274B83FB01239A10CB17D21A134645
:10094C009B0013445B00CA1A224BDA6038E0234B3D
:10095C001B681F4A82FB03129210DB17D31A1D4A25
:10096C0013601E4B19681A4B83FB01239A10CB178B
:10097C00D21A13469B0013445B00CA1A154B5A60DB
:10098C00114B1B68CD2B14D0CD2B19DCCB2B02D0EB
:10099C00CC2B07D014E00F4B00229A600D4B022297
:1009AC00DA600DE00B4B00229A600A4B0422DA60ED
:1009BC0006E0084B00229A60064B0322DA6000BF67
:1009CC0000BFBD4680BC7047240000202C000020D6
:1009DC00676666660800002084000020A4000020E2
:1009EC0080B582B000AF00237B603AE0214A7B687F
:1009FC0052F82330652B02D0662B13D02DE01E4B02
:100A0C001B68012B27D17868FFF7FEFB0346012BEF
:100A1C0021D1184A7B68662142F82310142000F07B
:100A2C00B3FC18E0144B1B68012B16D17868FFF748
:100A3C00EBFB0346002B10D17B68002B02D10F4B34
:100A4C0077221A600B4A7B68652142F82310142028
:100A5C0000F09AFC01E000BF00E000BF7B680133AE
:100A6C007B607B68022BC1DD00BF00BF0837BD4631
:100A7C0080BD00BF180000209000002088000020DE
:100A8C0080B400AF074B1B680133064A1360054B5B
:100A9C001B68632B02DD034B01221A6000BFBD46AD
:100AAC0080BC7047A400002080B500AF2E4B1B68A3
:100ABC00012B02D1642000F07BFC2C4B1B68CB2B50
:100ACC0011D02A4B1B68CC2B0DD0284B1B68CD2B7F
:100ADC0009D0274B1B681846FFF7B0FB234B1B684C
:100AEC001846FFF7F3FBFFF7F1FE224B1B68012BB7
:100AFC0038D1214B1B685A1C1F490A601846FFF756
:100B0C004BFE1E4B1B6801331C4A13601B4B1B68AE
:100B1C001B4A126893FBF2F102FB01F29B1A174A73
:100B2C001360174B1B68DA0F13445B101A46134BF8
:100B3C001B689A4205DC0D4B1B681846FFF70EFC30
:100B4C000DE00A4B1B68CD2B07D0084B1B68CB2B39
:100B5C0003D0064B1B68CC2B01D1FFF773FC19207B
:100B6C0000F03AFC00BF80BD98000020240000205B
:100B7C0028000020A0000020800000203C00002065
:100B8C004000002080B500AF9F4B1B68C83B052B75
:100B9C0000F2A78101A252F823F000BFC10B00089C
:100BAC001B0C0008750C0008CF0C0008410E000847
:100BBC00710D0008954B1B68002B16D1944B1B68CC
:100BCC00012B40F09581934B1B68013B914A1360BC
:100BDC00904B1B68002B00F38B818B4BC9221A6046
:100BEC008D4B1B688B4A136082E1874BCB221A60BA
:100BFC008A4BCB221A608A4B1B688A4A1360834B40
:100C0C0000221A604FF47A7000F0D2FB70E17F4B37
:100C1C001B68002B16D17E4B1B68012B40F06A81A0
:100C2C007C4B1B68013B7B4A13607A4B1B68002B87
:100C3C0000F36081744BCA221A607B4B1B68754AA7
:100C4C00136057E1704BCB221A60744BCB221A60A5
:100C5C00734B1B68734A13606C4B00221A604FF481
:100C6C007A7000F0A5FB45E1684B1B68002B16D190
:100C7C00674B1B68012B40F03F81664B1B68013BA7
:100C8C00644A1360634B1B68002B00F335815E4B89
:100C9C00C8221A60624B1B685E4A13602CE15A4BE7
:100CAC00CB221A605D4BCB221A605D4B1B685D4AF0
:100CBC001360564B00221A604FF47A7000F078FBE8
:100CCC001AE15A4B1B68662B16D1642000F05CFBB2
:100CDC00564B65221A604C4BCD221A604F4BCD22DD
:100CEC001A60514B1B684F4A1360484B00221A6024
:100CFC004FF47A7000F05CFB4C4B5B68662B0BD1AD
:100D0C004A4B65225A60642000F03EFBFFF7B8FEA8
:100D1C004FF47A7000F04CFB444B9B68662B0DD162
:100D2C00424B65229A60642000F02EFB3D4B1B6801
:100D3C003B4A13604FF47A7000F03AFB344B1B685B
:100D4C00012B40F0DB80304BC8221A60334BC92298
:100D5C001A60334B1B682F4A13602F4B1B68344AA5
:100D6C001360CBE0314B1B68662B16D1642000F06E
:100D7C000BFB2E4B65221A60234BCC221A60274B9F
:100D8C00CC221A60244B1B68264A13601F4B00228E
:100D9C001A604FF47A7000F00BFB244B5B68662BE7
:100DAC000BD1224B65225A60642000F0EDFAFFF75C
:100DBC0067FE4FF47A7000F0FBFA1C4B9B68662BB5
:100DCC000DD11A4B65229A60642000F0DDFA154BA8
:100DDC001B68154A13604FF47A7000F0E9FA0C4B5B
:100DEC001B68012B40F08C80074BC8221A600B4B00
:100DFC00C9221A600A4B1B68064A1360064B1B6813
:100E0C000B4A13607CE000BF240000208800002007
:100E1C00980000202C000020340000202800002026
:100E2C0030000020A4000020380000201800002012
:100E3C0084000020364B1B68662B1DD1642000F00B
:100E4C00A3FA334B65221A60324BC8221A60324B1C
:100E5C00C9221A60314B1B68314A13602F4B1B6837
:100E6C00304A1360304B1B68304A1360304B002201
:100E7C001A60642000F09CFA254B5B68662B0BD142
:100E8C00234B65225A60642000F07EFAFFF7F8FDD0
:100E9C004FF47A7000F08CFA1D4B9B68662B0DD1C9
:100EAC001B4B65229A60642000F06EFA1C4B1B6889
:100EBC001D4A13604FF47A7000F07AFA1D4B1B68D0
:100ECC00012B1FD1134BC8221A60134BC9221A6075
:100EDC00124B1B68134A1360134B1B68134A1360A5
:100EEC0010E00C4BC8221A600A4BC9221A600AE0A7
:100EFC0000BF08E000BF06E000BF04E000BF02E056
:100F0C0000BF00E000BFFFF7CFFD00BF80BD00BFFA
:100F1C0018000020240000202800002030000020B1
:100F2C00A40000202C0000203400002084000020AD
:100F3C00880000209800002080B400AF364B1B685E
:100F4C00C83B052B59D801A252F823F0710F0008A9
:100F5C00A30F0008D50F00080F1000080F10000891
:100F6C000F1000082D4B1B68002B4CD12C4B1B6811
:100F7C00012B48D12B4B1B68013B2A4A1360294B90
:100F8C001B68002B3FDC244BC9221A60264B1B68C4
:100F9C00244A136037E0214B1B68002B35D1204BC2
:100FAC001B68012B31D11F4B1B68013B1D4A136081
:100FBC001C4B1B68002B28DC174BCA221A601B4BDE
:100FCC001B68184A136020E0144B1B68002B1ED1C1
:100FDC00134B1B68012B1AD1124B1B68013B114A96
:100FEC001360104B1B68002B11DC0B4BC8221A60D2
:100FFC000F4B1B680B4A136009E0074BC9221A60A0
:10100C0006E000BF04E000BF02E000BF00E000BF4C
:10101C0000BFBD4680BC704728000020880000201F
:10102C0098000020840000203400002038000020AC
:10103C003000002080B500AF00F04AFA00F01AF83A
:10104C0000F0A0F800F052F8094801F093F90120E3
:10105C0000F09AF9012000F0ABF9012000F0BCF986
:10106C00FFF7BEFCFFF768FFFFF78CFDF8E700BF4A
:10107C00A800002080B590B000AF07F1180328221B
:10108C000021184601F02EFD3B1D00221A605A600B
:10109C009A60DA601A610223BB610123BB621023E0
:1010AC00FB6200237B6307F11803184600F02AFD4E
:1010BC000346002B01D000F0D3F80F237B600023F4
:1010CC00BB600023FB6000233B6100237B613B1D65
:1010DC000021184600F096FF0346002B01D000F0CB
:1010EC00BFF800BF4037BD4680BD000080B586B05C
:1010FC0000AF07F1080300221A605A609A60DA60A8
:10110C003B4600221A605A601D4B4FF080421A6019
:10111C001B4B41F63F725A60194B00229A60184BD8
:10112C000922DA60164B00221A61154B00229A61D3
:10113C00134801F0CFF80346002B01D000F090F8D3
:10114C004FF48053BB6007F1080319460C4801F0BB
:10115C0065FA0346002B01D000F082F800233B60B7
:10116C0000237B603B461946054801F02DFC0346E5
:10117C00002B01D000F074F800BF1837BD4680BDBD
:10118C00A800002080B586B000AF07F1080300224C
:10119C001A605A609A60DA60284B9B69274A43F0C0
:1011AC0004039361254B9B6903F004037B607B680C
:1011BC00224B9B69214A43F0080393611F4B9B69A7
:1011CC0003F008033B603B68002240F2FE711C48B0
:1011DC0000F07FFC00227F211A4800F07AFC40F2DC
:1011EC00FE73BB600123FB6000233B6102237B6128
:1011FC0007F108031946124800F0DAFA7F23BB60A6
:10120C000123FB6000233B6102237B6107F1080390
:10121C0019460C4800F0CCFA4FF4E043BB600023B5
:10122C00FB6001233B6107F108031946054800F0F8
:10123C00BFFA00BF1837BD4680BD00BF001002408A
:10124C0000080140000C014080B582B000AF78600E
:10125C0000F0D6F8FEF774FF00BF0837BD4680BD1E
:10126C0080B400AF72B600BFFEE7000080B485B05A
:10127C0000AF154B9B69144A43F001039361124B69
:10128C009B6903F00103BB60BB680F4BDB690E4A23
:10129C0043F08053D3610C4BDB6903F080537B60CC
:1012AC007B680A4B5B68FB60FB6823F0E063FB60C8
:1012BC00FB6843F08063FB60044AFB68536000BF2B
:1012CC001437BD4680BC704700100240000001403E
:1012DC0080B584B000AF78607B681B68B3F1804F39
:1012EC0013D10C4BDB690B4A43F00103D361094B5F
:1012FC00DB6903F00103FB60FB68002200211C206A
:10130C0000F01FFA1C2000F038FA00BF1037BD4661
:10131C0080BD00BF0010024080B400AFFEE780B477
:10132C0000AFFEE780B400AFFEE780B400AFFEE78D
:10133C0080B400AFFEE780B400AF00BFBD4680BCF8
:10134C00704780B400AF00BFBD4680BC704780B40E
:10135C0000AF00BFBD4680BC704780B500AF00F049
:10136C00FDF800BF80BD000080B500AF024801F061
:10137C004DF800BF80BD00BFA800002080B400AFB6
:10138C0000BFBD4680BC704780B483B000AF7860AE
:10139C00054A7B681360054B00221A6000BF0C37AE
:1013AC00BD4680BC704700BF8C0000209000002020
:1013BC0080B483B000AF7860054A7B681360054B3E
:1013CC0000221A6000BF0C37BD4680BC704700BFBE
:1013DC00940000209800002080B483B000AF7860A7
:1013EC00054A7B681360054B00221A6000BF0C375E
:1013FC00BD4680BC704700BF9C000020A0000020B0
:10140C0080B400AF194B1B68002B0BDD174B1B680E
:10141C00013B164A1360154B1B68002B02DC144B66
:10142C0001221A60134B1B68002B0BDD114B1B6840
:10143C00013B104A13600F4B1B68002B02DC0E4B58
:10144C0001221A600D4B1B68002B0BDD0B4B1B682C
:10145C00013B0A4A1360094B1B68002B02DC084B4A
:10146C0001221A6000BFBD4680BC70478C00002072
:10147C009000002094000020980000209C00002088
:10148C00A00000200C480D490D4A002302E0D4585E
:10149C00C4500433C4188C42F9D30A4A0A4C0023B2
:1014AC0001E013600432A242FBD3FFF767FF01F0A7
:1014BC00F5FAFFF7BFFD7047000000205000002038
:1014CC00402B000850000020F4000020FEE7000034
:1014DC0080B500AF084B1B68074A43F0100313603C
:1014EC00032000F023F90F2000F008F8FFF7BEFEF0
:1014FC000023184680BD00BF0020024080B582B09A
:10150C0000AF7860124B1A68124B1B7819464FF4D7
:10151C007A73B3FBF1F3B2FBF3F3184600F03BF92B
:10152C000346002B01D001230EE07B680F2B0AD859
:10153C00002279684FF0FF3000F003F9064A7B680F
:10154C001360002300E0012318460837BD4680BD18
:10155C00440000204C0000204800002080B400AF64
:10156C00054B1B781A46054B1B681344034A136042
:10157C0000BFBD4680BC70474C000020F00000202E
:10158C0080B400AF024B1B681846BD4680BC704748
:10159C00F000002080B485B000AF78607B6803F069
:1015AC000703FB600C4BDB68BB60BA684FF6FF03AC
:1015BC001340BB60FB681A02BB68134343F0BF6364
:1015CC0043F40033BB60044ABB68D36000BF1437DC
:1015DC00BD4680BC704700BF00ED00E080B400AF9A
:1015EC00044BDB681B0A03F007031846BD4680BC9E
:1015FC00704700BF00ED00E080B483B000AF03463D
:10160C00FB7197F90730002B0BDBFB7903F01F0202
:10161C00064997F907305B09012000FA02F241F8FC
:10162C00232000BF0C37BD4680BC704700E100E0B2
:10163C0080B483B000AF03463960FB7197F9073073
:10164C00002B0ADB3B68DAB20C4997F90730120120
:10165C00D2B20B4483F800230AE03B68DAB20849A3
:10166C00FB7903F00F03043B1201D2B20B441A7640
:10167C0000BF0C37BD4680BC704700BF00E100E0E6
:10168C0000ED00E080B489B000AFF860B9607A601A
:10169C00FB6803F00703FB61FB69C3F10703042B31
:1016AC0028BF0423BB61FB690433062B02D9FB69F9
:1016BC00033B00E000237B614FF0FF32BB6902FA71
:1016CC0003F3DA43BB681A407B699A404FF0FF3151
:1016DC007B6901FA03F3D9437B680B40134318462B
:1016EC002437BD4680BC704780B582B000AF7860AF
:1016FC007B68013BB3F1807F01D301230FE00A4AE1
:10170C007B68013B53600F214FF0FF30FFF790FFD8
:10171C00054B00229A60044B07221A6000231846DE
:10172C000837BD4680BD00BF10E000E080B582B038
:10173C0000AF78607868FFF72DFF00BF0837BD4613
:10174C0080BD80B586B000AF0346B9607A60FB738C
:10175C0000237B61FFF742FF78617A68B96878698A
:10176C00FFF790FF024697F90F3011461846FFF726
:10177C005FFF00BF1837BD4680BD80B582B000AF9B
:10178C000346FB7197F907301846FFF735FF00BF8A
:10179C000837BD4680BD80B582B000AF78607868F0
:1017AC00FFF7A2FF034618460837BD4680BD000070
:1017BC0080B48BB000AF7860396000237B6200236B
:1017CC003B6248E101227B6A02FA03F3FB613B684E
:1017DC001B68FA691340BB61BA69FB699A4240F015
:1017EC0037813B685B68A34A93425ED0A14A93421F
:1017FC0075D8A14A934258D09F4A93426FD89F4ABA
:10180C00934252D09D4A934269D89D4A93424CD000
:10181C009B4A934263D89B4A934246D0994A93423F
:10182C005DD8122B2AD8122B59D801A252F823F0CA
:10183C00B718000891180008A3180008E51800084C
:10184C00EB180008EB180008EB180008EB18000860
:10185C00EB180008EB180008EB180008EB18000850
:10186C00EB180008EB180008EB180008EB18000840
:10187C00EB18000899180008AD180008824A93422A
:10188C0013D02CE03B68DB683B6229E03B68DB68EB
:10189C0004333B6224E03B68DB6808333B621FE0A7
:1018AC003B68DB680C333B621AE03B689B68002B9F
:1018BC0002D104233B6213E03B689B68012B05D1EA
:1018CC0008233B627B68FA691A6109E008233B62D2
:1018DC007B68FA695A6103E000233B6200E000BFB9
:1018EC00BB69FF2B01D87B6801E07B6804337B610B
:1018FC00BB69FF2B02D87B6A9B0002E07B6A083B2A
:10190C009B003B617B691A680F213B6901FA03F369
:10191C00DB431A40396A3B6901FA03F31A437B69CA
:10192C001A603B685B6803F08053002B00F09080DA
:10193C00564B9B69554A43F001039361534B9B698A
:10194C0003F00103BB60BB68514A7B6A9B080233FE
:10195C0052F82330FB607B6A03F003039B000F22D9
:10196C0002FA03F3DB43FA681340FB607B68494AD5
:10197C0093420DD07B68484A934207D07B68474A14
:10198C00934201D1022304E0032302E0012300E08F
:10199C0000237A6A02F0030292009340FA68134320
:1019AC00FB603B497B6A9B080233FA6841F82320B1
:1019BC003B685B6803F48033002B06D0384B1A6805
:1019CC003749BB6913430B6006E0354B1A68BB699A
:1019DC00DB43334913400B603B685B6803F4003313
:1019EC00002B06D02E4B5A682D49BB6913434B6014
:1019FC0006E02B4B5A68BB69DB43294913404B600B
:101A0C003B685B6803F48013002B06D0244B9A6868
:101A1C002349BB6913438B6006E0214B9A68BB6971
:101A2C00DB431F4913408B603B685B6803F4001376
:101A3C00002B06D01A4BDA681949BB691343CB60EB
:101A4C0006E0174BDA68BB69DB4315491340CB60E2
:101A5C007B6A01337B623B681A687B6A22FA03F368
:101A6C00002B7FF4AFAE00BF00BF2C37BD4680BC4F
:101A7C00704700BF0000321000003110000022102F
:101A8C000000211000001210000011100010024084
:101A9C000000014000080140000C01400010014012
:101AAC000004014080B485B000AF78600B467B80A9
:101ABC007B689A687B881340002B02D00123FB7350
:101ACC0001E00023FB73FB7B18461437BD4680BC3A
:101ADC00704780B483B000AF78600B467B801346B0
:101AEC007B707B78002B03D07A887B681A6103E0CB
:101AFC007B881A047B681A6100BF0C37BD4680BC1A
:101B0C007047000080B586B000AF78607B68002B12
:101B1C0001D101236CE27B681B6803F00103002BED
:101B2C0000F08780924B5B6803F00C03042B0CD005
:101B3C008F4B5B6803F00C03082B12D18C4B5B684A
:101B4C0003F48033B3F5803F0BD1894B1B6803F44E
:101B5C000033002B6CD07B685B68002B68D10123B1
:101B6C0046E27B685B68B3F5803F06D1804B1B680F
:101B7C007F4A43F4803313602EE07B685B68002B54
:101B8C000CD17B4B1B687A4A23F480331360784B5F
:101B9C001B68774A23F4802313601DE07B685B6825
:101BAC00B3F5A02F0CD1724B1B68714A43F4802300
:101BBC0013606F4B1B686E4A43F4803313600BE069
:101BCC006B4B1B686A4A23F480331360684B1B68A9
:101BDC00674A23F4802313607B685B68002B13D067
:101BEC00FFF7CEFC386108E0FFF7CAFC02463B6900
:101BFC00D31A642B01D90323FAE15D4B1B6803F460
:101C0C000033002BF0D014E0FFF7BAFC386108E089
:101C1C00FFF7B6FC02463B69D31A642B01D90323A8
:101C2C00E6E1534B1B6803F40033002BF0D100E0CA
:101C3C0000BF7B681B6803F00203002B63D04C4B86
:101C4C005B6803F00C03002B0BD0494B5B6803F073
:101C5C000C03082B1CD1464B5B6803F48033002B20
:101C6C0016D1434B1B6803F00203002B05D07B6895
:101C7C001B69012B01D00123BAE13D4B1B6823F0FA
:101C8C00F8027B685B69DB00394913430B603AE06F
:101C9C007B681B69002B20D0364B01221A60FFF7A2
:101CAC006FFC386108E0FFF76BFC02463B69D31A06
:101CBC00022B01D903239BE12D4B1B6803F002037C
:101CCC00002BF0D02A4B1B6823F0F8027B685B6971
:101CDC00DB00274913430B6015E0264B00221A60EA
:101CEC00FFF74EFC386108E0FFF74AFC02463B69FF
:101CFC00D31A022B01D903237AE11D4B1B6803F085
:101D0C000203002BF0D17B681B6803F00803002B47
:101D1C003AD07B689B69002B19D0174B01221A60B3
:101D2C00FFF72EFC386108E0FFF72AFC02463B69FE
:101D3C00D31A022B01D903235AE10D4B5B6A03F032
:101D4C000203002BF0D0012000F0A6FA1CE00A4B95
:101D5C0000221A60FFF714FC38610FE0FFF710FC4B
:101D6C0002463B69D31A022B08D9032340E100BF7A
:101D7C000010024000004242800442429E4B5B6ACB
:101D8C0003F00203002BE9D17B681B6803F004030A
:101D9C00002B00F0A6800023FB75974BDB6903F04A
:101DAC008053002B0DD1944BDB69934A43F0805345
:101DBC00D361914BDB6903F08053BB60BB6801239B
:101DCC00FB758E4B1B6803F48073002B18D18B4B67
:101DDC001B688A4A43F480731360FFF7D1FB3861A8
:101DEC0008E0FFF7CDFB02463B69D31A642B01D9FF
:101DFC000323FDE0814B1B6803F48073002BF0D0B0
:101E0C007B68DB68012B06D17B4B1B6A7A4A43F05B
:101E1C00010313622DE07B68DB68002B0CD1764B41
:101E2C001B6A754A23F001031362734B1B6A724AD7
:101E3C0023F0040313621CE07B68DB68052B0CD1D8
:101E4C006D4B1B6A6C4A43F0040313626A4B1B6AAA
:101E5C00694A43F0010313620BE0674B1B6A664A45
:101E6C0023F001031362644B1B6A634A23F00403DF
:101E7C0013627B68DB68002B15D0FFF781FB3861A0
:101E8C000AE0FFF77DFB02463B69D31A41F2883228
:101E9C00934201D90323ABE0574B1B6A03F00203B7
:101EAC00002BEED014E0FFF76BFB38610AE0FFF774
:101EBC0067FB02463B69D31A41F28832934201D93F
:101ECC00032395E04C4B1B6A03F00203002BEED16D
:101EDC00FB7D012B05D1484BDB69474A23F080532E
:101EEC00D3617B68DB69002B00F08180424B5B681F
:101EFC0003F00C03082B61D07B68DB69022B46D105
:101F0C003F4B00221A60FFF73BFB386108E0FFF7FC
:101F1C0037FB02463B69D31A022B01D9032367E036
:101F2C00354B1B6803F00073002BF0D17B681B6AE8
:101F3C00B3F5803F08D1304B5B6823F400327B68EB
:101F4C009B682D4913434B602B4B5B6823F4741235
:101F5C007B68196A7B685B6A0B43274913434B60A8
:101F6C00274B01221A60FFF70BFB386108E0FFF7E3
:101F7C0007FB02463B69D31A022B01D9032337E036
:101F8C001D4B1B6803F00073002BF0D02FE01C4B93
:101F9C0000221A60FFF7F4FA386108E0FFF7F0FA54
:101FAC0002463B69D31A022B01D9032320E0124BC2
:101FBC001B6803F00073002BF0D118E07B68DB6921
:101FCC00012B01D1012313E00B4B5B68FB60FB6819
:101FDC0003F480327B681B6A9A4206D1FB6803F4D7
:101FEC0070127B685B6A9A4201D0012300E00023E7
:101FFC0018461837BD4680BD0010024000700040E6
:10200C006000424280B584B000AF786039607B6874
:10201C00002B01D10123D0E06A4B1B6803F00703AE
:10202C003A689A4210D9674B1B6823F0070265493E
:10203C003B6813430B60634B1B6803F007033A6860
:10204C009A4201D00123B8E07B681B6803F00203BD
:10205C00002B20D07B681B6803F00403002B05D0F9
:10206C00594B5B68584A43F4E06353607B681B68C8
:10207C0003F00803002B05D0534B5B68524A43F422
:10208C0060535360504B5B6823F0F0027B689B6895
:10209C004D4913434B607B681B6803F00103002B15
:1020AC0040D07B685B68012B07D1474B1B6803F45E
:1020BC000033002B15D101237FE07B685B68022B7A
:1020CC0007D1414B1B6803F00073002B09D101238E
:1020DC0073E03D4B1B6803F00203002B01D101237D
:1020EC006BE0394B5B6823F003027B685B68364915
:1020FC0013434B60FFF744FAF8600AE0FFF740FA2D
:10210C000246FB68D31A41F28832934201D9032369
:10211C0053E02D4B5B6803F00C027B685B689B0003
:10212C009A42EBD1274B1B6803F007033A689A429B
:10213C0010D2244B1B6823F0070222493B6813433F
:10214C000B60204B1B6803F007033A689A4201D0DE
:10215C00012332E07B681B6803F00403002B08D0DA
:10216C00194B5B6823F4E0627B68DB681649134308
:10217C004B607B681B6803F00803002B09D0124BE3
:10218C005B6823F460527B681B69DB000E491343C8
:10219C004B6000F021F802460B4B5B681B0903F007
:1021AC000F030A49CB5C22FA03F3094A1360094B6B
:1021BC001B681846FFF7A2F9002318461037BD46D6
:1021CC0080BD00BF0020024000100240282B0008F8
:1021DC00440000204800002090B48AB000AF2A4B85
:1021EC003C1D0FCB84E80F0040F201233B80002301
:1021FC00FB610023BB6100237B6200237B61002316
:10220C003B62224B5B68FB61FB6903F00C03042B04
:10221C0002D0082B03D02DE01D4B3B622DE0FB6957
:10222C009B0C03F00F0307F12802134413F8243C12
:10223C007B61FB6903F48033002B13D0134B5B6879
:10224C005B0C03F0010307F12802134413F8283C3C
:10225C00BB617B690E4A02FB03F2BB69B2FBF3F371
:10226C007B6204E07B690B4A02FB03F37B627B6AB3
:10227C003B6202E0064B3B6200BF3B6A18462837C4
:10228C00BD4690BC704700BF182B000800100240E0
:10229C0000127A0000093D0080B485B000AF786070
:1022AC000A4B1B680A4AA2FB03235B0A7A6802FBEF
:1022BC0003F3FB6000BFFB685A1EFA60002BF9D1D8
:1022CC0000BF00BF1437BD4680BC704744000020DF
:1022DC00D34D621080B582B000AF78607B68002B64
:1022EC0001D1012341E07B6893F83D30DBB2002B38
:1022FC0006D17B68002283F83C207868FEF7E8FF63
:10230C007B68022283F83D207B681A687B68043363
:10231C001946104600F06AFA7B68012283F84620C1
:10232C007B68012283F83E207B68012283F83F20E2
:10233C007B68012283F840207B68012283F84120CE
:10234C007B68012283F842207B68012283F84320BA
:10235C007B68012283F844207B68012283F84520A6
:10236C007B68012283F83D20002318460837BD46C0
:10237C0080BD000080B485B000AF78607B6893F8B6
:10238C003D30DBB2012B01D0012335E07B6802220A
:10239C0083F83D207B681B68DA687B681B6842F019
:1023AC000102DA607B681B68164A934209D07B688D
:1023BC001B68B3F1804F04D07B681B68124A9342B0
:1023CC0011D17B681B689B6803F00703FB60FB68FB
:1023DC00062B10D07B681B681A687B681B6842F060
:1023EC0001021A6007E07B681B681A687B681B682F
:1023FC0042F001021A60002318461437BD4680BC17
:10240C00704700BF002C01400004004080B582B032
:10241C0000AF78607B681B681B6903F00203022B1A
:10242C0022D17B681B68DB6803F00203022B1BD1F3
:10243C007B681B686FF002021A617B6801221A77B5
:10244C007B681B689B6903F00303002B03D078683F
:10245C0000F0B1F905E0786800F0A4F9786800F0B4
:10246C00B3F97B6800221A777B681B681B6903F041
:10247C000403042B22D17B681B68DB6803F0040384
:10248C00042B1BD17B681B686FF004021A617B68FC
:10249C0002221A777B681B689B6903F44073002B3C
:1024AC0003D0786800F087F905E0786800F07AF9D5
:1024BC00786800F089F97B6800221A777B681B68C2
:1024CC001B6903F00803082B22D17B681B68DB68AF
:1024DC0003F00803082B1BD17B681B686FF0080204
:1024EC001A617B6804221A777B681B68DB6903F02E
:1024FC000303002B03D0786800F05DF905E07868E1
:10250C0000F050F9786800F05FF97B6800221A77C8
:10251C007B681B681B6903F01003102B22D17B68AE
:10252C001B68DB6803F01003102B1BD17B681B6846
:10253C006FF010021A617B6808221A777B681B689F
:10254C00DB6903F44073002B03D0786800F033F997
:10255C0005E0786800F026F9786800F035F97B68BA
:10256C0000221A777B681B681B6903F00103012B9F
:10257C000ED17B681B68DB6803F00103012B07D1CC
:10258C007B681B686FF001021A617868FEF75CFECD
:10259C007B681B681B6903F08003802B0ED17B6862
:1025AC001B68DB6803F08003802B07D17B681B68FA
:1025BC006FF080021A61786800F067FA7B681B681C
:1025CC001B6903F04003402B0ED17B681B68DB6852
:1025DC0003F04003402B07D17B681B686FF040026F
:1025EC001A61786800F0F9F87B681B681B6903F0C6
:1025FC002003202B0ED17B681B68DB6803F02003C3
:10260C00202B07D17B681B686FF020021A61786859
:10261C0000F032FA00BF0837BD4680BD80B584B0EB
:10262C0000AF786039607B6893F83C30012B01D1A6
:10263C000223B3E07B68012283F83C207B680222F2
:10264C0083F83D207B681B689B68FB60FB6823F06C
:10265C007703FB60FB6823F47F43FB607B681B689C
:10266C00FA689A603B681B68B3F5005F3ED0B3F51F
:10267C00005F00F28780B3F5805F00F08580B3F5D2
:10268C00805F7FD8702B1AD0702B7BD8602B50D0EA
:10269C00602B77D8502B3CD0502B73D8402B58D074
:1026AC00402B6FD8302B64D0302B6BD8202B60D0C4
:1026BC00202B67D8002B5CD0102B5AD062E07B68A3
:1026CC0018683B6899683B685A683B68DB6800F09F
:1026DC005CF97B681B689B68FB60FB6843F07703C5
:1026EC00FB607B681B68FA689A604EE07B68186830
:1026FC003B6899683B685A683B68DB6800F045F9B1
:10270C007B681B689A687B681B6842F480429A60FD
:10271C003BE07B6818683B6859683B68DB681A4685
:10272C0000F0BCF87B681B685021184600F013F9C8
:10273C002BE07B6818683B6859683B68DB681A4675
:10274C0000F0DAF87B681B686021184600F003F98A
:10275C001BE07B6818683B6859683B68DB681A4665
:10276C0000F09CF87B681B684021184600F0F3F8D9
:10277C000BE07B681A683B681B681946104600F032
:10278C00EAF802E000BF00E000BF7B68012283F89A
:10279C003D207B68002283F83C200023184610372C
:1027AC00BD4680BD80B483B000AF786000BF0C37ED
:1027BC00BD4680BC704780B483B000AF786000BF6A
:1027CC000C37BD4680BC704780B483B000AF7860D6
:1027DC0000BF0C37BD4680BC704780B483B000AFDF
:1027EC00786000BF0C37BD4680BC704780B485B0A4
:1027FC0000AF786039607B681B68FB607B68254A9A
:10280C00934207D07B68B3F1804F03D07B68224A98
:10281C00934208D1FB6823F07003FB603B685B6854
:10282C00FA681343FB607B681A4A934207D07B68B3
:10283C00B3F1804F03D07B68174A934208D1FB68F1
:10284C0023F44073FB603B68DB68FA681343FB605E
:10285C00FB6823F080023B685B691343FB607B6879
:10286C00FA681A603B689A687B68DA623B681A6897
:10287C007B689A627B68074A934203D13B681A696A
:10288C007B681A637B6801225A6100BF1437BD460E
:10289C0080BC7047002C01400004004080B487B01D
:1028AC0000AFF860B9607A60FB681B6A7B61FB68FB
:1028BC001B6A23F00102FB681A62FB689B693B618F
:1028CC003B6923F0F0033B617B681B013A691343BE
:1028DC003B617B6923F00A037B617A69BB68134314
:1028EC007B61FB683A699A61FB687A691A6200BF7E
:1028FC001C37BD4680BC704780B487B000AFF86011
:10290C00B9607A60FB681B6A23F01002FB681A62DC
:10291C00FB689B697B61FB681B6A3B617B6923F4E9
:10292C0070437B617B681B037A6913437B613B6952
:10293C0023F0A0033B61BB681B013A6913433B6165
:10294C00FB687A699A61FB683A691A6200BF1C37A6
:10295C00BD4680BC704780B485B000AF78603960EC
:10296C007B689B68FB60FB6823F07003FB603A6834
:10297C00FB68134343F00703FB607B68FA689A60BB
:10298C0000BF1437BD4680BC704780B487B000AF21
:10299C00F860B9607A603B60FB689B687B617B691F
:1029AC0023F47F437B613B681A027B681A43BB6844
:1029BC0013437A6913437B61FB687A699A6000BFA1
:1029CC001C37BD4680BC704780B485B000AF7860C2
:1029DC0039607B6893F83C30012B01D1022341E034
:1029EC007B68012283F83C207B68022283F83D201F
:1029FC007B681B685B68FB607B681B689B68BB60C3
:102A0C00FB6823F07003FB603B681B68FA68134398
:102A1C00FB607B681B68FA685A607B681B68144A09
:102A2C00934209D07B681B68B3F1804F04D07B685C
:102A3C001B68104A93420CD1BB6823F08003BB6027
:102A4C003B685B68BA681343BB607B681B68BA68F9
:102A5C009A607B68012283F83D207B68002283F812
:102A6C003C20002318461437BD4680BC704700BF7D
:102A7C00002C01400004004080B483B000AF7860AB
:102A8C0000BF0C37BD4680BC704780B483B000AF2C
:102A9C00786000BF0C37BD4680BC704770B500260F
:102AAC000C4D0D4C641BA410A64209D100F022F869
:102ABC0000260A4D0A4C641BA410A64205D170BD19
:102ACC0055F8043B98470136EEE755F8043B984718
:102ADC000136F2E7382B0008382B0008382B000899
:102AEC003C2B000803460244934200D1704703F884
:102AFC00011BF9E7F8B500BFF8BC08BC9E4670474F
:0C2B0C00F8B500BFF8BC08BC9E4670473E
:102B180002030405060708090A0B0C0D0E0F101016
:102B28000000000000000000010203040607080975
:042B3800310100085F
:042B3C000D0100087F
:102B40000010002000400000010000000200000012
:102B500003000000040000006500000065000000A4
:102B600065000000C8000000C9000000050000006A
:102B70000500000003000000020000000700000044
:102B8000080000000024F400100000000100000014
:04000005080014914A
:00000001FF
